{
  "_format": "hh-sol-artifact-1",
  "contractName": "JobContract",
  "sourceName": "contracts/JobContract.sol",
  "abi": [
    {
      "inputs": [],
      "stateMutability": "nonpayable",
      "type": "constructor"
    },
    {
      "anonymous": false,
      "inputs": [
        {
          "indexed": true,
          "internalType": "address",
          "name": "employee",
          "type": "address"
        },
        {
          "indexed": true,
          "internalType": "address",
          "name": "changer",
          "type": "address"
        },
        {
          "indexed": false,
          "internalType": "bool",
          "name": "newStatus",
          "type": "bool"
        },
        {
          "indexed": false,
          "internalType": "string",
          "name": "jobDescription",
          "type": "string"
        }
      ],
      "name": "EmploymentStatusChanged",
      "type": "event"
    },
    {
      "inputs": [
        {
          "internalType": "address",
          "name": "_employer",
          "type": "address"
        }
      ],
      "name": "addEmployer",
      "outputs": [],
      "stateMutability": "nonpayable",
      "type": "function"
    },
    {
      "inputs": [
        {
          "internalType": "address",
          "name": "_employee",
          "type": "address"
        }
      ],
      "name": "assignEmployee",
      "outputs": [],
      "stateMutability": "nonpayable",
      "type": "function"
    },
    {
      "inputs": [
        {
          "internalType": "address",
          "name": "",
          "type": "address"
        }
      ],
      "name": "employees",
      "outputs": [
        {
          "internalType": "bool",
          "name": "",
          "type": "bool"
        }
      ],
      "stateMutability": "view",
      "type": "function"
    },
    {
      "inputs": [],
      "name": "employer",
      "outputs": [
        {
          "internalType": "address",
          "name": "",
          "type": "address"
        }
      ],
      "stateMutability": "view",
      "type": "function"
    },
    {
      "inputs": [
        {
          "internalType": "address",
          "name": "",
          "type": "address"
        }
      ],
      "name": "employers",
      "outputs": [
        {
          "internalType": "bool",
          "name": "",
          "type": "bool"
        }
      ],
      "stateMutability": "view",
      "type": "function"
    },
    {
      "inputs": [
        {
          "internalType": "address",
          "name": "",
          "type": "address"
        },
        {
          "internalType": "uint256",
          "name": "",
          "type": "uint256"
        }
      ],
      "name": "employmentStatusHistory",
      "outputs": [
        {
          "internalType": "uint256",
          "name": "timestamp",
          "type": "uint256"
        },
        {
          "internalType": "address",
          "name": "changer",
          "type": "address"
        },
        {
          "internalType": "bool",
          "name": "status",
          "type": "bool"
        },
        {
          "internalType": "string",
          "name": "jobDescription",
          "type": "string"
        }
      ],
      "stateMutability": "view",
      "type": "function"
    },
    {
      "inputs": [
        {
          "internalType": "address",
          "name": "_employee",
          "type": "address"
        }
      ],
      "name": "getEmploymentStatus",
      "outputs": [
        {
          "internalType": "bool",
          "name": "",
          "type": "bool"
        }
      ],
      "stateMutability": "view",
      "type": "function"
    },
    {
      "inputs": [
        {
          "internalType": "address",
          "name": "_employee",
          "type": "address"
        }
      ],
      "name": "getEmploymentStatusHistoryWithJobChange",
      "outputs": [
        {
          "components": [
            {
              "internalType": "uint256",
              "name": "timestamp",
              "type": "uint256"
            },
            {
              "internalType": "address",
              "name": "changer",
              "type": "address"
            },
            {
              "internalType": "bool",
              "name": "status",
              "type": "bool"
            },
            {
              "internalType": "string",
              "name": "jobDescription",
              "type": "string"
            }
          ],
          "internalType": "struct JobContract.EmploymentStatus[]",
          "name": "",
          "type": "tuple[]"
        }
      ],
      "stateMutability": "view",
      "type": "function"
    },
    {
      "inputs": [
        {
          "internalType": "address",
          "name": "_employee",
          "type": "address"
        },
        {
          "internalType": "bool",
          "name": "_status",
          "type": "bool"
        },
        {
          "internalType": "string",
          "name": "_jobDescription",
          "type": "string"
        }
      ],
      "name": "setEmploymentStatus",
      "outputs": [],
      "stateMutability": "nonpayable",
      "type": "function"
    }
  ],
  "bytecode": "0x608060405234801561001057600080fd5b5060018060003373ffffffffffffffffffffffffffffffffffffffff1673ffffffffffffffffffffffffffffffffffffffff16815260200190815260200160002060006101000a81548160ff021916908315150217905550611630806100776000396000f3fe608060405234801561001057600080fd5b50600436106100935760003560e01c806368b549191161006657806368b54919146101475780638cc24ef314610163578063ae200e791461017f578063d06789471461019d578063fc97f953146101cd57610093565b80630be435bd1461009857806325df8329146100c85780632d950583146100f8578063375b3cc614610114575b600080fd5b6100b260048036038101906100ad9190610ba4565b6101fd565b6040516100bf9190610bec565b60405180910390f35b6100e260048036038101906100dd9190610ba4565b61021d565b6040516100ef9190610df3565b60405180910390f35b610112600480360381019061010d9190610ba4565b610627565b005b61012e60048036038101906101299190610e41565b61070f565b60405161013e9493929190610ee9565b60405180910390f35b610161600480360381019061015c9190610ba4565b610811565b005b61017d60048036038101906101789190611096565b61086b565b005b610187610a58565b6040516101949190611105565b60405180910390f35b6101b760048036038101906101b29190610ba4565b610a7c565b6040516101c49190610bec565b60405180910390f35b6101e760048036038101906101e29190610ba4565b610a9c565b6040516101f49190610bec565b60405180910390f35b60016020528060005260406000206000915054906101000a900460ff1681565b60606000805b600360008573ffffffffffffffffffffffffffffffffffffffff1673ffffffffffffffffffffffffffffffffffffffff16815260200190815260200160002080549050811015610326577fc5d2460186f7233c927e7db2dcc703c0e500b653ca82273b7bfad8045d85a470600360008673ffffffffffffffffffffffffffffffffffffffff1673ffffffffffffffffffffffffffffffffffffffff16815260200190815260200160002082815481106102df576102de611120565b5b90600052602060002090600302016002016040516102fd9190611252565b60405180910390201461031957818061031590611298565b9250505b8080600101915050610223565b5060008167ffffffffffffffff81111561034357610342610f6b565b5b60405190808252806020026020018201604052801561037c57816020015b610369610af2565b8152602001906001900390816103615790505b5090506000805b600360008773ffffffffffffffffffffffffffffffffffffffff1673ffffffffffffffffffffffffffffffffffffffff1681526020019081526020016000208054905081101561061b577fc5d2460186f7233c927e7db2dcc703c0e500b653ca82273b7bfad8045d85a470600360008873ffffffffffffffffffffffffffffffffffffffff1673ffffffffffffffffffffffffffffffffffffffff168152602001908152602001600020828154811061043f5761043e611120565b5b906000526020600020906003020160020160405161045d9190611252565b60405180910390201461060e57600360008773ffffffffffffffffffffffffffffffffffffffff1673ffffffffffffffffffffffffffffffffffffffff16815260200190815260200160002081815481106104bb576104ba611120565b5b9060005260206000209060030201604051806080016040529081600082015481526020016001820160009054906101000a900473ffffffffffffffffffffffffffffffffffffffff1673ffffffffffffffffffffffffffffffffffffffff1673ffffffffffffffffffffffffffffffffffffffff1681526020016001820160149054906101000a900460ff1615151515815260200160028201805461055f9061117e565b80601f016020809104026020016040519081016040528092919081815260200182805461058b9061117e565b80156105d85780601f106105ad576101008083540402835291602001916105d8565b820191906000526020600020905b8154815290600101906020018083116105bb57829003601f168201915b5050505050815250508383815181106105f4576105f3611120565b5b6020026020010181905250818061060a90611298565b9250505b8080600101915050610383565b50819350505050919050565b600260008273ffffffffffffffffffffffffffffffffffffffff1673ffffffffffffffffffffffffffffffffffffffff16815260200190815260200160002060009054906101000a900460ff16156106b4576040517f08c379a00000000000000000000000000000000000000000000000000000000081526004016106ab9061132c565b60405180910390fd5b6001600260008373ffffffffffffffffffffffffffffffffffffffff1673ffffffffffffffffffffffffffffffffffffffff16815260200190815260200160002060006101000a81548160ff02191690831515021790555050565b6003602052816000526040600020818154811061072b57600080fd5b9060005260206000209060030201600091509150508060000154908060010160009054906101000a900473ffffffffffffffffffffffffffffffffffffffff16908060010160149054906101000a900460ff169080600201805461078e9061117e565b80601f01602080910402602001604051908101604052809291908181526020018280546107ba9061117e565b80156108075780601f106107dc57610100808354040283529160200191610807565b820191906000526020600020905b8154815290600101906020018083116107ea57829003601f168201915b5050505050905084565b60018060008373ffffffffffffffffffffffffffffffffffffffff1673ffffffffffffffffffffffffffffffffffffffff16815260200190815260200160002060006101000a81548160ff02191690831515021790555050565b81600260008573ffffffffffffffffffffffffffffffffffffffff1673ffffffffffffffffffffffffffffffffffffffff16815260200190815260200160002060006101000a81548160ff021916908315150217905550600360008473ffffffffffffffffffffffffffffffffffffffff1673ffffffffffffffffffffffffffffffffffffffff16815260200190815260200160002060405180608001604052804281526020013373ffffffffffffffffffffffffffffffffffffffff16815260200184151581526020018381525090806001815401808255809150506001900390600052602060002090600302016000909190919091506000820151816000015560208201518160010160006101000a81548173ffffffffffffffffffffffffffffffffffffffff021916908373ffffffffffffffffffffffffffffffffffffffff16021790555060408201518160010160146101000a81548160ff02191690831515021790555060608201518160020190816109e991906114f8565b5050503373ffffffffffffffffffffffffffffffffffffffff168373ffffffffffffffffffffffffffffffffffffffff167f27e320d41a6147a498ed20d653c61464c57f8a8b99828a344b0f52ef5a88af2c8484604051610a4b9291906115ca565b60405180910390a3505050565b60008054906101000a900473ffffffffffffffffffffffffffffffffffffffff1681565b60026020528060005260406000206000915054906101000a900460ff1681565b6000600260008373ffffffffffffffffffffffffffffffffffffffff1673ffffffffffffffffffffffffffffffffffffffff16815260200190815260200160002060009054906101000a900460ff169050919050565b604051806080016040528060008152602001600073ffffffffffffffffffffffffffffffffffffffff168152602001600015158152602001606081525090565b6000604051905090565b600080fd5b600080fd5b600073ffffffffffffffffffffffffffffffffffffffff82169050919050565b6000610b7182610b46565b9050919050565b610b8181610b66565b8114610b8c57600080fd5b50565b600081359050610b9e81610b78565b92915050565b600060208284031215610bba57610bb9610b3c565b5b6000610bc884828501610b8f565b91505092915050565b60008115159050919050565b610be681610bd1565b82525050565b6000602082019050610c016000830184610bdd565b92915050565b600081519050919050565b600082825260208201905092915050565b6000819050602082019050919050565b6000819050919050565b610c4681610c33565b82525050565b610c5581610b66565b82525050565b610c6481610bd1565b82525050565b600081519050919050565b600082825260208201905092915050565b60005b83811015610ca4578082015181840152602081019050610c89565b60008484015250505050565b6000601f19601f8301169050919050565b6000610ccc82610c6a565b610cd68185610c75565b9350610ce6818560208601610c86565b610cef81610cb0565b840191505092915050565b6000608083016000830151610d126000860182610c3d565b506020830151610d256020860182610c4c565b506040830151610d386040860182610c5b565b5060608301518482036060860152610d508282610cc1565b9150508091505092915050565b6000610d698383610cfa565b905092915050565b6000602082019050919050565b6000610d8982610c07565b610d938185610c12565b935083602082028501610da585610c23565b8060005b85811015610de15784840389528151610dc28582610d5d565b9450610dcd83610d71565b925060208a01995050600181019050610da9565b50829750879550505050505092915050565b60006020820190508181036000830152610e0d8184610d7e565b905092915050565b610e1e81610c33565b8114610e2957600080fd5b50565b600081359050610e3b81610e15565b92915050565b60008060408385031215610e5857610e57610b3c565b5b6000610e6685828601610b8f565b9250506020610e7785828601610e2c565b9150509250929050565b610e8a81610c33565b82525050565b610e9981610b66565b82525050565b600082825260208201905092915050565b6000610ebb82610c6a565b610ec58185610e9f565b9350610ed5818560208601610c86565b610ede81610cb0565b840191505092915050565b6000608082019050610efe6000830187610e81565b610f0b6020830186610e90565b610f186040830185610bdd565b8181036060830152610f2a8184610eb0565b905095945050505050565b610f3e81610bd1565b8114610f4957600080fd5b50565b600081359050610f5b81610f35565b92915050565b600080fd5b600080fd5b7f4e487b7100000000000000000000000000000000000000000000000000000000600052604160045260246000fd5b610fa382610cb0565b810181811067ffffffffffffffff82111715610fc257610fc1610f6b565b5b80604052505050565b6000610fd5610b32565b9050610fe18282610f9a565b919050565b600067ffffffffffffffff82111561100157611000610f6b565b5b61100a82610cb0565b9050602081019050919050565b82818337600083830152505050565b600061103961103484610fe6565b610fcb565b90508281526020810184848401111561105557611054610f66565b5b611060848285611017565b509392505050565b600082601f83011261107d5761107c610f61565b5b813561108d848260208601611026565b91505092915050565b6000806000606084860312156110af576110ae610b3c565b5b60006110bd86828701610b8f565b93505060206110ce86828701610f4c565b925050604084013567ffffffffffffffff8111156110ef576110ee610b41565b5b6110fb86828701611068565b9150509250925092565b600060208201905061111a6000830184610e90565b92915050565b7f4e487b7100000000000000000000000000000000000000000000000000000000600052603260045260246000fd5b7f4e487b7100000000000000000000000000000000000000000000000000000000600052602260045260246000fd5b6000600282049050600182168061119657607f821691505b6020821081036111a9576111a861114f565b5b50919050565b600081905092915050565b60008190508160005260206000209050919050565b600081546111dc8161117e565b6111e681866111af565b94506001821660008114611201576001811461121657611249565b60ff1983168652811515820286019350611249565b61121f856111ba565b60005b8381101561124157815481890152600182019150602081019050611222565b838801955050505b50505092915050565b600061125e82846111cf565b915081905092915050565b7f4e487b7100000000000000000000000000000000000000000000000000000000600052601160045260246000fd5b60006112a382610c33565b91507fffffffffffffffffffffffffffffffffffffffffffffffffffffffffffffffff82036112d5576112d4611269565b5b600182019050919050565b7f456d706c6f79656520616c72656164792068697265642e000000000000000000600082015250565b6000611316601783610e9f565b9150611321826112e0565b602082019050919050565b6000602082019050818103600083015261134581611309565b9050919050565b60008190508160005260206000209050919050565b60006020601f8301049050919050565b600082821b905092915050565b6000600883026113ae7fffffffffffffffffffffffffffffffffffffffffffffffffffffffffffffffff82611371565b6113b88683611371565b95508019841693508086168417925050509392505050565b6000819050919050565b60006113f56113f06113eb84610c33565b6113d0565b610c33565b9050919050565b6000819050919050565b61140f836113da565b61142361141b826113fc565b84845461137e565b825550505050565b600090565b61143861142b565b611443818484611406565b505050565b5b818110156114675761145c600082611430565b600181019050611449565b5050565b601f8211156114ac5761147d8161134c565b61148684611361565b81016020851015611495578190505b6114a96114a185611361565b830182611448565b50505b505050565b600082821c905092915050565b60006114cf600019846008026114b1565b1980831691505092915050565b60006114e883836114be565b9150826002028217905092915050565b61150182610c6a565b67ffffffffffffffff81111561151a57611519610f6b565b5b611524825461117e565b61152f82828561146b565b600060209050601f8311600181146115625760008415611550578287015190505b61155a85826114dc565b8655506115c2565b601f1984166115708661134c565b60005b8281101561159857848901518255600182019150602085019450602081019050611573565b868310156115b557848901516115b1601f8916826114be565b8355505b6001600288020188555050505b505050505050565b60006040820190506115df6000830185610bdd565b81810360208301526115f18184610eb0565b9050939250505056fea2646970667358221220bb79de4523881b22b7430cfa1abaff6ed7ba54d25e6b247bfd84d7fbb24617df64736f6c63430008180033",
  "linkReferences": {},
  "deployedLinkReferences": {}
}